{
  "transactions": [
    {
      "hash": "0xcec320df906e64835cb2ef9197ede3499876695df83c7a81bde9c60411c7e9c1",
      "transactionType": "CALL",
      "contractName": null,
      "contractAddress": "0x0c56f1e4e1fa9f3f2fe8bf8865fdbc001204859c",
      "function": "approve(address,uint256)",
      "arguments": [
        "0xB8368640D1aB0684FA0c670C3c1F74831764F591",
        "1000000000000000000000"
      ],
      "transaction": {
        "from": "0x14791697260e4c9a71f18484c9f997b308e59325",
        "to": "0x0c56f1e4e1fa9f3f2fe8bf8865fdbc001204859c",
        "gas": "0x10916",
        "value": "0x0",
        "input": "0x095ea7b3000000000000000000000000b8368640d1ab0684fa0c670c3c1f74831764f59100000000000000000000000000000000000000000000003635c9adc5dea00000",
        "nonce": "0xb3",
        "chainId": "0x64aba",
        "accessList": null,
        "type": null
      },
      "additionalContracts": [],
      "isFixedGasLimit": false
    },
    {
      "hash": "0xf4082ec9294f097f0fe65cb31e037c85de1b9eeac139d071afec9e2aefa3a5da",
      "transactionType": "CALL",
      "contractName": null,
      "contractAddress": "0xed723ef571f990d967eb0ed31a50351d6818446a",
      "function": "approve(address,uint256)",
      "arguments": [
        "0xB8368640D1aB0684FA0c670C3c1F74831764F591",
        "1000000000000000000000"
      ],
      "transaction": {
        "from": "0x14791697260e4c9a71f18484c9f997b308e59325",
        "to": "0xed723ef571f990d967eb0ed31a50351d6818446a",
        "gas": "0x10916",
        "value": "0x0",
        "input": "0x095ea7b3000000000000000000000000b8368640d1ab0684fa0c670c3c1f74831764f59100000000000000000000000000000000000000000000003635c9adc5dea00000",
        "nonce": "0xb4",
        "chainId": "0x64aba",
        "accessList": null,
        "type": null
      },
      "additionalContracts": [],
      "isFixedGasLimit": false
    },
    {
      "hash": "0x4bbb9401a940c7b7bfdac253868af927369e3c5a9071e688b4a4d29f0fefeca8",
      "transactionType": "CALL",
      "contractName": null,
      "contractAddress": "0xb8368640d1ab0684fa0c670c3c1f74831764f591",
      "function": "modifyLiquidity((address,address,uint24,int24,address),(int24,int24,int256),bytes)",
      "arguments": [
        "(0x0c56F1e4e1fA9F3f2Fe8bF8865fDbC001204859C, 0xed723EF571F990d967EB0eD31a50351d6818446a, 4000, 10, 0x2b0e534B1BD6cd85C036E7b33856EA15c203403b)",
        "(-600, 600, 10000000000000000000000)",
        "0x"
      ],
      "transaction": {
        "from": "0x14791697260e4c9a71f18484c9f997b308e59325",
        "to": "0xb8368640d1ab0684fa0c670c3c1f74831764f591",
        "gas": "0x7d676",
        "value": "0x0",
        "input": "0xbec999dd0000000000000000000000000c56f1e4e1fa9f3f2fe8bf8865fdbc001204859c000000000000000000000000ed723ef571f990d967eb0ed31a50351d6818446a0000000000000000000000000000000000000000000000000000000000000fa0000000000000000000000000000000000000000000000000000000000000000a0000000000000000000000002b0e534b1bd6cd85c036e7b33856ea15c203403bfffffffffffffffffffffffffffffffffffffffffffffffffffffffffffffda8000000000000000000000000000000000000000000000000000000000000025800000000000000000000000000000000000000000000021e19e0c9bab240000000000000000000000000000000000000000000000000000000000000000001200000000000000000000000000000000000000000000000000000000000000000",
        "nonce": "0xb5",
        "chainId": "0x64aba",
        "accessList": null,
        "type": null
      },
      "additionalContracts": [],
      "isFixedGasLimit": false
    }
  ],
  "receipts": [
    {
      "status": "0x1",
      "cumulativeGasUsed": "0xb557",
      "logs": [
        {
          "address": "0x0c56f1e4e1fa9f3f2fe8bf8865fdbc001204859c",
          "topics": [
            "0x8c5be1e5ebec7d5bd14f71427d1e84f3dd0314c0f7b2291e5b200ac8c7c3b925",
            "0x00000000000000000000000014791697260e4c9a71f18484c9f997b308e59325",
            "0x000000000000000000000000b8368640d1ab0684fa0c670c3c1f74831764f591"
          ],
          "data": "0x00000000000000000000000000000000000000000000003635c9adc5dea00000",
          "blockHash": "0xe8f35c7a7b7ec8700d6170f787af69381d34fd159a456a32dabdf1f43bca6dae",
          "blockNumber": "0x5e",
          "transactionHash": "0xcec320df906e64835cb2ef9197ede3499876695df83c7a81bde9c60411c7e9c1",
          "transactionIndex": "0x1",
          "logIndex": "0x0",
          "removed": false
        }
      ],
      "logsBloom": "0x00000000000000000000000000000000000000000000000000000000000000000000000000000000000000000000000000000000000000000000000000200000200000000000000000000000000000000000000000000000004000000000000000000000000000000000000000000000000000000000000000000000000000000000000000000000000000000000000000000000000000000000000000000000020000000000100000000000000000000000000000000000000000000000000000000040000000000000000000000000000000000000000000000000000000000410008000000000000000000000000000001000000000000000000001000002",
      "type": "0x2",
      "transactionHash": "0xcec320df906e64835cb2ef9197ede3499876695df83c7a81bde9c60411c7e9c1",
      "transactionIndex": "0x1",
      "blockHash": "0xe8f35c7a7b7ec8700d6170f787af69381d34fd159a456a32dabdf1f43bca6dae",
      "blockNumber": "0x5e",
      "gasUsed": "0xb557",
      "effectiveGasPrice": "0x5f5e100",
      "from": "0x14791697260e4c9a71f18484c9f997b308e59325",
      "to": "0x0c56f1e4e1fa9f3f2fe8bf8865fdbc001204859c",
      "contractAddress": null,
      "gasUsedForL1": "0x15",
      "l1BlockNumber": "0xc139"
    },
    {
      "status": "0x1",
      "cumulativeGasUsed": "0xb557",
      "logs": [
        {
          "address": "0xed723ef571f990d967eb0ed31a50351d6818446a",
          "topics": [
            "0x8c5be1e5ebec7d5bd14f71427d1e84f3dd0314c0f7b2291e5b200ac8c7c3b925",
            "0x00000000000000000000000014791697260e4c9a71f18484c9f997b308e59325",
            "0x000000000000000000000000b8368640d1ab0684fa0c670c3c1f74831764f591"
          ],
          "data": "0x00000000000000000000000000000000000000000000003635c9adc5dea00000",
          "blockHash": "0x12f6bb12f8ea3882cc1dc002561274210661be45dcea9491cdb67e4442f17a4c",
          "blockNumber": "0x5f",
          "transactionHash": "0xf4082ec9294f097f0fe65cb31e037c85de1b9eeac139d071afec9e2aefa3a5da",
          "transactionIndex": "0x1",
          "logIndex": "0x0",
          "removed": false
        }
      ],
      "logsBloom": "0x00000000000000000000000000000000000000000000000000000000000000000000000000000000000000000000000000000000000000000000000000200000200400000000000000000000000000000000000000000000004000000000000000000000000000000000000000000000000000000000000000000000000000000000000008000000000000000000000000000000000000020000000000000000020000000000100000000000000000000000000000000000000000000000000000000040000000000000000000000000000000000000000000000000000000000410000000000000000000000000000000000000000000000000000001000000",
      "type": "0x2",
      "transactionHash": "0xf4082ec9294f097f0fe65cb31e037c85de1b9eeac139d071afec9e2aefa3a5da",
      "transactionIndex": "0x1",
      "blockHash": "0x12f6bb12f8ea3882cc1dc002561274210661be45dcea9491cdb67e4442f17a4c",
      "blockNumber": "0x5f",
      "gasUsed": "0xb557",
      "effectiveGasPrice": "0x5f5e100",
      "from": "0x14791697260e4c9a71f18484c9f997b308e59325",
      "to": "0xed723ef571f990d967eb0ed31a50351d6818446a",
      "contractAddress": null,
      "gasUsedForL1": "0x15",
      "l1BlockNumber": "0xc139"
    }
  ],
  "libraries": [],
  "pending": [],
  "returns": {},
  "timestamp": 1713269303,
  "chain": 412346,
  "commit": "651e1ae"
}