{
  "transactions": [
    {
      "hash": "0xd77e494b19e701026f020b12debd1d9e19faea4aa22901fb7cdede4fd536572e",
      "transactionType": "CALL",
      "contractName": null,
      "contractAddress": "0x2dc942dcba13e4be27721980fe01f2221610a93b",
      "function": "approve(address,uint256)",
      "arguments": [
        "0x4aa4365da82ACD46e378A6f3c92a863f3e763d34",
        "115792089237316195423570985008687907853269984665640564039457584007913129639935"
      ],
      "transaction": {
        "from": "0x14791697260e4c9a71f18484c9f997b308e59325",
        "to": "0x2dc942dcba13e4be27721980fe01f2221610a93b",
        "gas": "0x9fbc",
        "value": "0x0",
        "input": "0x095ea7b30000000000000000000000004aa4365da82acd46e378a6f3c92a863f3e763d34ffffffffffffffffffffffffffffffffffffffffffffffffffffffffffffffff",
        "nonce": "0xc",
        "chainId": "0x64aba",
        "accessList": null,
        "type": null
      },
      "additionalContracts": [],
      "isFixedGasLimit": false
    },
    {
      "hash": "0xa4674e23703a690afc2ae5c6fdad2f4dc33616d1e729c1c7de3ee49ca8b1c17a",
      "transactionType": "CALL",
      "contractName": null,
      "contractAddress": "0xfb9a956c4875826a76d47c360234fc1633c078a8",
      "function": "approve(address,uint256)",
      "arguments": [
        "0x4aa4365da82ACD46e378A6f3c92a863f3e763d34",
        "115792089237316195423570985008687907853269984665640564039457584007913129639935"
      ],
      "transaction": {
        "from": "0x14791697260e4c9a71f18484c9f997b308e59325",
        "to": "0xfb9a956c4875826a76d47c360234fc1633c078a8",
        "gas": "0x9fbc",
        "value": "0x0",
        "input": "0x095ea7b30000000000000000000000004aa4365da82acd46e378a6f3c92a863f3e763d34ffffffffffffffffffffffffffffffffffffffffffffffffffffffffffffffff",
        "nonce": "0xd",
        "chainId": "0x64aba",
        "accessList": null,
        "type": null
      },
      "additionalContracts": [],
      "isFixedGasLimit": false
    },
    {
      "hash": "0x7a69c6c819fbb10a719c816c7e84b9b15d99a4fad1ef7dc40a3147bf32c42cea",
      "transactionType": "CALL",
      "contractName": null,
      "contractAddress": "0x4aa4365da82acd46e378a6f3c92a863f3e763d34",
      "function": "swap((address,address,uint24,int24,address),(bool,int256,uint160),(bool,bool,bool),bytes)",
      "arguments": [
        "(0x2dC942dcba13E4BE27721980FE01f2221610A93b, 0xFB9a956c4875826a76d47C360234FC1633C078A8, 3000, 60, 0x2b02aBF3572e805547A7029f304aA6bbf6e0031F)",
        "(true, 100000000000000000000, 4295128740)",
        "(true, true, false)",
        "0x"
      ],
      "transaction": {
        "from": "0x14791697260e4c9a71f18484c9f997b308e59325",
        "to": "0x4aa4365da82acd46e378a6f3c92a863f3e763d34",
        "gas": "0x51eee",
        "value": "0x0",
        "input": "0x6646135b0000000000000000000000002dc942dcba13e4be27721980fe01f2221610a93b000000000000000000000000fb9a956c4875826a76d47c360234fc1633c078a80000000000000000000000000000000000000000000000000000000000000bb8000000000000000000000000000000000000000000000000000000000000003c0000000000000000000000002b02abf3572e805547a7029f304aa6bbf6e0031f00000000000000000000000000000000000000000000000000000000000000010000000000000000000000000000000000000000000000056bc75e2d6310000000000000000000000000000000000000000000000000000000000001000276a400000000000000000000000000000000000000000000000000000000000000010000000000000000000000000000000000000000000000000000000000000001000000000000000000000000000000000000000000000000000000000000000000000000000000000000000000000000000000000000000000000000000001800000000000000000000000000000000000000000000000000000000000000000",
        "nonce": "0xe",
        "chainId": "0x64aba",
        "accessList": null,
        "type": null
      },
      "additionalContracts": [],
      "isFixedGasLimit": false
    }
  ],
  "receipts": [
    {
      "status": "0x1",
      "cumulativeGasUsed": "0x73c1",
      "logs": [
        {
          "address": "0x2dc942dcba13e4be27721980fe01f2221610a93b",
          "topics": [
            "0x8c5be1e5ebec7d5bd14f71427d1e84f3dd0314c0f7b2291e5b200ac8c7c3b925",
            "0x00000000000000000000000014791697260e4c9a71f18484c9f997b308e59325",
            "0x0000000000000000000000004aa4365da82acd46e378a6f3c92a863f3e763d34"
          ],
          "data": "0xffffffffffffffffffffffffffffffffffffffffffffffffffffffffffffffff",
          "blockHash": "0x5952ce08df08b58f29a4b03d4bf4cc0e0a4d2eff6b9ffe62264795d65f509e1b",
          "blockNumber": "0x20",
          "transactionHash": "0xd77e494b19e701026f020b12debd1d9e19faea4aa22901fb7cdede4fd536572e",
          "transactionIndex": "0x1",
          "logIndex": "0x0",
          "removed": false
        }
      ],
      "logsBloom": "0x00000000000000000000000000000000000000000000000000000000000000000000000000000000000000000000000000000000000000000000000000200000080000000000000000000000000000000000000000000000004000000000000800000000000000000000000000000000000000000000000000000000000000000000000000000000000000000000000000000000000000000000000000000000020200000000000000000000000000000000000000000000000000000000000000000040000000000000000000000000400000000000000000000000000000000010000000000000000000000000000000000000000000001000000001000004",
      "type": "0x2",
      "transactionHash": "0xd77e494b19e701026f020b12debd1d9e19faea4aa22901fb7cdede4fd536572e",
      "transactionIndex": "0x1",
      "blockHash": "0x5952ce08df08b58f29a4b03d4bf4cc0e0a4d2eff6b9ffe62264795d65f509e1b",
      "blockNumber": "0x20",
      "gasUsed": "0x73c1",
      "effectiveGasPrice": "0x5f5e100",
      "from": "0x14791697260e4c9a71f18484c9f997b308e59325",
      "to": "0x2dc942dcba13e4be27721980fe01f2221610a93b",
      "contractAddress": null,
      "gasUsedForL1": "0x1b",
      "l1BlockNumber": "0x1972"
    },
    {
      "status": "0x1",
      "cumulativeGasUsed": "0xe782",
      "logs": [
        {
          "address": "0xfb9a956c4875826a76d47c360234fc1633c078a8",
          "topics": [
            "0x8c5be1e5ebec7d5bd14f71427d1e84f3dd0314c0f7b2291e5b200ac8c7c3b925",
            "0x00000000000000000000000014791697260e4c9a71f18484c9f997b308e59325",
            "0x0000000000000000000000004aa4365da82acd46e378a6f3c92a863f3e763d34"
          ],
          "data": "0xffffffffffffffffffffffffffffffffffffffffffffffffffffffffffffffff",
          "blockHash": "0x5952ce08df08b58f29a4b03d4bf4cc0e0a4d2eff6b9ffe62264795d65f509e1b",
          "blockNumber": "0x20",
          "transactionHash": "0xa4674e23703a690afc2ae5c6fdad2f4dc33616d1e729c1c7de3ee49ca8b1c17a",
          "transactionIndex": "0x2",
          "logIndex": "0x1",
          "removed": false
        }
      ],
      "logsBloom": "0x00000000000000000000000000000000000000000000000000000000000000000000000000000000000000000000000000000000000000000000000000200000080000004000000000000000000000000000000000000000004000000004000800000000000000000000000000000000000000000000000000000000000000000000000000000000000000000000000000000002000000000000000000000000020200000000000000000000000000000000000000000000000000000000000000000040000000000000000000000000000000000000000000000000000000000010000000000000000000000000000000000000000000000000000001000000",
      "type": "0x2",
      "transactionHash": "0xa4674e23703a690afc2ae5c6fdad2f4dc33616d1e729c1c7de3ee49ca8b1c17a",
      "transactionIndex": "0x2",
      "blockHash": "0x5952ce08df08b58f29a4b03d4bf4cc0e0a4d2eff6b9ffe62264795d65f509e1b",
      "blockNumber": "0x20",
      "gasUsed": "0x73c1",
      "effectiveGasPrice": "0x5f5e100",
      "from": "0x14791697260e4c9a71f18484c9f997b308e59325",
      "to": "0xfb9a956c4875826a76d47c360234fc1633c078a8",
      "contractAddress": null,
      "gasUsedForL1": "0x1b",
      "l1BlockNumber": "0x1972"
    },
    {
      "status": "0x1",
      "cumulativeGasUsed": "0x49cd5",
      "logs": [
        {
          "address": "0x8cde56336e289c028c8f7cf5c20283ff02272182",
          "topics": [
            "0x40e9cecb9f5f1f1c5b9c97dec2917b7ee92e57ba5563708daca94dd84ad7112f",
            "0x1bd2ea3cb811adc7719c394ac6d215874d5b2630ad4dc29015a58b141c744e50",
            "0x0000000000000000000000004aa4365da82acd46e378a6f3c92a863f3e763d34"
          ],
          "data": "0xfffffffffffffffffffffffffffffffffffffffffffffffa81fc368ca655a4570000000000000000000000000000000000000000000000056bc75e2d631000000000000000000000000000000000000000000000fd70a3d70a3d70a3d70a3d7000000000000000000000000000000000000000000000021e19e0c9bab2400000ffffffffffffffffffffffffffffffffffffffffffffffffffffffffffffff360000000000000000000000000000000000000000000000000000000000000bb8",
          "blockHash": "0x5952ce08df08b58f29a4b03d4bf4cc0e0a4d2eff6b9ffe62264795d65f509e1b",
          "blockNumber": "0x20",
          "transactionHash": "0x7a69c6c819fbb10a719c816c7e84b9b15d99a4fad1ef7dc40a3147bf32c42cea",
          "transactionIndex": "0x3",
          "logIndex": "0x2",
          "removed": false
        },
        {
          "address": "0x2dc942dcba13e4be27721980fe01f2221610a93b",
          "topics": [
            "0xddf252ad1be2c89b69c2b068fc378daa952ba7f163c4a11628f55a4df523b3ef",
            "0x00000000000000000000000014791697260e4c9a71f18484c9f997b308e59325",
            "0x0000000000000000000000008cde56336e289c028c8f7cf5c20283ff02272182"
          ],
          "data": "0x0000000000000000000000000000000000000000000000057e03c97359aa5ba9",
          "blockHash": "0x5952ce08df08b58f29a4b03d4bf4cc0e0a4d2eff6b9ffe62264795d65f509e1b",
          "blockNumber": "0x20",
          "transactionHash": "0x7a69c6c819fbb10a719c816c7e84b9b15d99a4fad1ef7dc40a3147bf32c42cea",
          "transactionIndex": "0x3",
          "logIndex": "0x3",
          "removed": false
        },
        {
          "address": "0xfb9a956c4875826a76d47c360234fc1633c078a8",
          "topics": [
            "0xddf252ad1be2c89b69c2b068fc378daa952ba7f163c4a11628f55a4df523b3ef",
            "0x0000000000000000000000008cde56336e289c028c8f7cf5c20283ff02272182",
            "0x00000000000000000000000014791697260e4c9a71f18484c9f997b308e59325"
          ],
          "data": "0x0000000000000000000000000000000000000000000000056bc75e2d63100000",
          "blockHash": "0x5952ce08df08b58f29a4b03d4bf4cc0e0a4d2eff6b9ffe62264795d65f509e1b",
          "blockNumber": "0x20",
          "transactionHash": "0x7a69c6c819fbb10a719c816c7e84b9b15d99a4fad1ef7dc40a3147bf32c42cea",
          "transactionIndex": "0x3",
          "logIndex": "0x4",
          "removed": false
        }
      ],
      "logsBloom": "0x00000000000000000000000000000000000000000000000000000000000000000010000000004000000000000080000000000000040000000000000000000000080000004000000000000008000000000000200000000020084000000004000800000000000000000000000000800000000000000000000000000010000000000000000000000000000000000000000000000002000000000000000000000000000200000000000000000000000000200000000000000000000000000000000000000042000000000000000000000000400000000000000000000000000000000000000000000000004000000000000000000000000000001400010001000004",
      "type": "0x2",
      "transactionHash": "0x7a69c6c819fbb10a719c816c7e84b9b15d99a4fad1ef7dc40a3147bf32c42cea",
      "transactionIndex": "0x3",
      "blockHash": "0x5952ce08df08b58f29a4b03d4bf4cc0e0a4d2eff6b9ffe62264795d65f509e1b",
      "blockNumber": "0x20",
      "gasUsed": "0x3b553",
      "effectiveGasPrice": "0x5f5e100",
      "from": "0x14791697260e4c9a71f18484c9f997b308e59325",
      "to": "0x4aa4365da82acd46e378a6f3c92a863f3e763d34",
      "contractAddress": null,
      "gasUsedForL1": "0x3b",
      "l1BlockNumber": "0x1972"
    }
  ],
  "libraries": [],
  "pending": [],
  "returns": {},
  "timestamp": 1713379249,
  "chain": 412346,
  "commit": "2479506"
}