{
  "transactions": [
    {
      "hash": "0xba77b214ec25189340c3e9086eb544ae513286be0e1414c15f7f3b64f9cfd18f",
      "transactionType": "CALL",
      "contractName": null,
      "contractAddress": "0x7b5cd09c909891b26305d37ca8731e442120ced2",
      "function": "initialize((address,address,uint24,int24,address),uint160,bytes)",
      "arguments": [
        "(0x0c56F1e4e1fA9F3f2Fe8bF8865fDbC001204859C, 0xed723EF571F990d967EB0eD31a50351d6818446a, 4000, 10, 0x2b0e534B1BD6cd85C036E7b33856EA15c203403b)",
        "79228162514264337593543950336",
        "0x00000000000000000000000000000000000000000000000000000000661e68ac"
      ],
      "transaction": {
        "from": "0x14791697260e4c9a71f18484c9f997b308e59325",
        "to": "0x7b5cd09c909891b26305d37ca8731e442120ced2",
        "gas": "0x12afa",
        "value": "0x0",
        "input": "0x695c5bf50000000000000000000000000c56f1e4e1fa9f3f2fe8bf8865fdbc001204859c000000000000000000000000ed723ef571f990d967eb0ed31a50351d6818446a0000000000000000000000000000000000000000000000000000000000000fa0000000000000000000000000000000000000000000000000000000000000000a0000000000000000000000002b0e534b1bd6cd85c036e7b33856ea15c203403b000000000000000000000000000000000000000100000000000000000000000000000000000000000000000000000000000000000000000000000000000000e0000000000000000000000000000000000000000000000000000000000000002000000000000000000000000000000000000000000000000000000000661e68ac",
        "nonce": "0xb2",
        "chainId": "0x64aba",
        "accessList": null,
        "type": null
      },
      "additionalContracts": [],
      "isFixedGasLimit": false
    }
  ],
  "receipts": [
    {
      "status": "0x1",
      "cumulativeGasUsed": "0xd8a1",
      "logs": [
        {
          "address": "0x7b5cd09c909891b26305d37ca8731e442120ced2",
          "topics": [
            "0x3fd553db44f207b1f41348cfc4d251860814af9eadc470e8e7895e4d120511f4",
            "0xfbd86626ac94712752ade2a566476bb8ee6a819d22401eb1aae498522ce7a6a1",
            "0x0000000000000000000000000c56f1e4e1fa9f3f2fe8bf8865fdbc001204859c",
            "0x000000000000000000000000ed723ef571f990d967eb0ed31a50351d6818446a"
          ],
          "data": "0x0000000000000000000000000000000000000000000000000000000000000fa0000000000000000000000000000000000000000000000000000000000000000a0000000000000000000000002b0e534b1bd6cd85c036e7b33856ea15c203403b",
          "blockHash": "0x416b4b9e1fec55e70e247b4e8df54f604356652cbba515b137e340187ddadb81",
          "blockNumber": "0x5c",
          "transactionHash": "0xba77b214ec25189340c3e9086eb544ae513286be0e1414c15f7f3b64f9cfd18f",
          "transactionIndex": "0x1",
          "logIndex": "0x0",
          "removed": false
        }
      ],
      "logsBloom": "0x00000000000000000800000000000000000000000000000000000000000000000000000000000000000000004000000000000000000000000000000000000000000000000010000000100000000020000000000000000000000000000000000000000000000000000000000000000000000000000000000008000000000000000000000000000000000000000000000000000000000000000000000000000000000008000000000000000400000000000000000000000000000000000000000000000008000040000000000000000100000000000000000000000000000000040000000000400000000000000000000000000000000002000000000000000000",
      "type": "0x2",
      "transactionHash": "0xba77b214ec25189340c3e9086eb544ae513286be0e1414c15f7f3b64f9cfd18f",
      "transactionIndex": "0x1",
      "blockHash": "0x416b4b9e1fec55e70e247b4e8df54f604356652cbba515b137e340187ddadb81",
      "blockNumber": "0x5c",
      "gasUsed": "0xd8a1",
      "effectiveGasPrice": "0x5f5e100",
      "from": "0x14791697260e4c9a71f18484c9f997b308e59325",
      "to": "0x7b5cd09c909891b26305d37ca8731e442120ced2",
      "contractAddress": null,
      "gasUsedForL1": "0x2c",
      "l1BlockNumber": "0xc0bb"
    }
  ],
  "libraries": [],
  "pending": [],
  "returns": {},
  "timestamp": 1713269177,
  "chain": 412346,
  "commit": "651e1ae"
}